:020000040000fa
:080000000002040000000000f2
:020000040000fa
:100008009e0200009e0200009e0200009e02000068
:100018009e0200009e0200009e0200009e02000058
:100028009e0200009e0200009e0200009e02000048
:100038009e0200009e0200009e0200009e02000038
:10004800e61700009e0200009e0200009e020000cb
:100058009e0200009e0200009e0200009e02000018
:100068009e0200009e0200009e0200009e02000008
:100078009e0200009e0200009e0200009e020000f8
:100088009e0200009e0200009e0200009e020000e8
:100098009e0200009e0200009e0200009e020000d8
:1000a8009e0200009e0200009e0200009e020000c8
:1000b8009e0200009e0200009e0200009e020000b8
:1000c8009e0200009e0200009e0200009e020000a8
:1000d8009e0200009e0200009e0200009e02000098
:1000e8009e0200009e0200009e0200009e02000088
:1000f8009e0200009e0200009e0200009e02000078
:100108009e0200009e0200009e0200009e02000067
:100118009e0200009e0200009e0200009e02000057
:100128009e0200009e0200009e0200009e02000047
:100138009e0200009e0200009e0200009e02000037
:100148009e0200009e0200009e0200009e02000027
:100158009e0200009e0200009e0200009e02000017
:100168009e0200009e0200009e0200009e02000007
:100178009e0200009e020000f01b00009e0200008c
:100188009e0200009e0200009e0200009e020000e7
:100198009e0200009e0200009e0200009e020000d7
:1001a8009e0200009e0200009e0200009e020000c7
:1001b8009e0200009e0200009e0200009e020000b7
:1001c8009e0200009e0200009e0200009e020000a7
:1001d8009e0200009e0200009e0200009e02000097
:1001e8009e0200009e0200009e0200009e02000087
:0801f8009e0200009e020000bf
:020000040000fa
:100208009e0200009e0200009e0200009e02000066
:100218009e0200009e0200009e0200009e02000056
:100228009e0200009e0200009e0200009e02000046
:100238009e0200009e0200009e0200009e02000036
:10024800e61700009e0200009e0200009e020000c9
:100258009e0200009e0200009e0200009e02000016
:100268009e0200009e0200009e0200009e02000006
:100278009e0200009e0200009e0200009e020000f6
:100288009e0200009e0200009e0200009e020000e6
:100298009e0200009e0200009e0200009e020000d6
:1002a8009e0200009e0200009e0200009e020000c6
:1002b8009e0200009e0200009e0200009e020000b6
:1002c8009e0200009e0200009e0200009e020000a6
:1002d8009e0200009e0200009e0200009e02000096
:1002e8009e0200009e0200009e0200009e02000086
:1002f8009e0200009e0200009e0200009e02000076
:100308009e0200009e0200009e0200009e02000065
:100318009e0200009e0200009e0200009e02000055
:100328009e0200009e0200009e0200009e02000045
:100338009e0200009e0200009e0200009e02000035
:100348009e0200009e0200009e0200009e02000025
:100358009e0200009e0200009e0200009e02000015
:100368009e0200009e0200009e0200009e02000005
:100378009e0200009e020000f01b00009e0200008a
:100388009e0200009e0200009e0200009e020000e5
:100398009e0200009e0200009e0200009e020000d5
:1003a8009e0200009e0200009e0200009e020000c5
:1003b8009e0200009e0200009e0200009e020000b5
:1003c8009e0200009e0200009e0200009e020000a5
:1003d8009e0200009e0200009e0200009e02000095
:1003e8009e0200009e0200009e0200009e02000085
:0803f8009e0200009e020000bd
:020000040000fa
:100400000f8920000e7f22000e01880000000000ee
:10041000000020000000e000020032000001200087
:10042000200288000c00070060c7210001002000a6
:1004300011000700000020000000e0000200320070
:1004400000000200000000009e1a020000000000f0
:100450000040da000000fe004440a900800d2000aa
:100460000000e0000300320000002000a00188002e
:100470004440a80000000600910188008000780038
:100480000000eb0015003700e280400032a0b4000d
:100490009101ba00e280400032a0b4009102ba009b
:1004a000e280400032a0b4000002eb00472bde00e7
:1004b000f507b200602ce10004003a000059eb009f
:1004c0008301e900fdff3e00040037006128e100e0
:1004d000010032000082eb00040007001101ba00a5
:1004e0000200e000e8ff3a00000006003159ba00bf
:1004f0008301e9000c0032002159ba008301e900b0
:10050000080032000400e00003003a00e2804000ee
:1005100032a0b400f5ff370011d9ba008301e90019
:10052000faff3a008100e800e180400032a0b40008
:100530000000060000000000000000000040da009b
:100540000000fe000002780002003700015a780027
:100550000201e900e00f5100fcff3a000000060034
:020000040000fa
:10056000120100000002000000000000000800006e
:10057000d804000055000000010000000102000046
:100580000001000009020000290000000101000034
:1005900000c000003209000004000000000200005a
:1005a000030100000100000009210000110100000a
:1005b00000010000223f000000070000058100004c
:1005c000030800000001000007050000010300000f
:1005d00008000000010000000403000009040000fe
:1005e000340300004d0000006900000063000000bb
:1005f000720000006f00000063000000680000004f
:10060000690000007000000020000000540000009d
:100610006500000063000000680000006e0000003c
:100620006f0000006c0000006f0000006700000019
:100630007900000020000000490000006e0000006a
:10064000630000002e0000001c0300004b000000af
:100650006500000079000000620000006f000000eb
:100660006100000072000000640000002000000033
:1006700044000000650000006d0000006f000000f5
:10068000c2820000ec820000f0820000248300009f
:100690000501000009060000a10100000507000097
:1006a00019e0000029e70000150000002501000006
:1006b000750100009508000081020000950100000e
:1006c0007508000081030000950500007501000019
:1006d0000508000019010000290500009102000032
:1006e00095010000750300009103000095060000cd
:1006f00075080000150000002565000005070000d2
:10070000190000002965000081000000c000000001
:020000040000fa
:100710000200fa009ec0a9000082eb007424880049
:100720000082eb00542488000002eb00542588006e
:10073000220020008000eb00c04a200081ff07005b
:1007400024002000342588000002eb0044258800a6
:100750008644a900f409200084248800f4092000bc
:10076000642488008804a800048020004822de0059
:10077000c42488000042eb00044f780008003700d2
:100780009e4278000582fb00c222dd00048020002a
:10079000048342006022b800048bbe001e4fe800b4
:1007a0001e427800e74f5200f5ff36009424a8005f
:1007b0000002eb00b424880094a4a9009424a900aa
:1007c0001600370084002000542488000042eb000b
:1007d0008442780046832000054b78000042eb00fd
:1007e00084427800a6832000054b7800b483200063
:1007f000144278006042620084427800b683200090
:10080000054b7800c48320001442780060426200e7
:1008100084427800c6832000054b78005424800071
:1008200068026200e00f5200e6ff3a0014c0b30015
:1008300084427800d6842000054b780014c0b300b1
:1008400084427800e6842000054b78000042eb00eb
:1008500084427800f6842000054b78000042eb00cb
:100860008442780006852000054b78000042eb00aa
:100870008442780036842000054b78000042eb006b
:10088000044f78001b0037001e4378000682fb00ef
:1008900084024200c4822000048242008002eb00f5
:1008a000050a78009e4278000582fb00840242001f
:1008b00084822000048242008002eb00050a780056
:1008c0001e4378008682fb0074842000048242006c
:1008d0008042eb00054a78001e4278008482fb00cb
:1008e00094842000048242008042eb00054a780094
:1008f0001e4fe8001e427800e14f5200e2ff360032
:100900008480200064418800d400200054258800a1
:10091000148520001440880084c0b300044378008c
:1009200005802000864a780044c0b3000443780064
:1009300015802000864a78001580200095427800b6
:1009400004c8b30004c2720004437800158020007c
:10095000864a78000042eb0004437800258220009c
:10096000864a78000002eb00044188000080fa000b
:10097000000006000200fa0004418000e10f52006e
:100980000b003a00a52480000404200004826200c9
:10099000e00f520006003a000082eb005424880069
:1009a0008c04a8008c84a800240020000441880046
:1009b0000424800070026200e00f52000700320041
:1009c0001424800070026200e00f52000300320025
:1009d000040120000424880044050700442480000a
:1009e00062026200e00f5200020032008ec0a900d5
:1009f000ab0037005424800061026200e00f520017
:100a00000a0032006424800061026200e00f52009c
:100a1000060032003eff07009ec0a80044002000f0
:100a200004418800140020005424880054248000cd
:100a300070026200e00f5200070032006424800060
:100a400070026200e00f5200030032001905070037
:100a500004012000542488005424800064026200b1
:100a6000e00f52001900320064248000640262002a
:100a7000e00f520004003200120020008000eb0062
:100a800030072000c00a07004400200054248800da
:100a9000b484200014427800e04f52000600320077
:100aa000b4842000144278000442e9000443780032
:100ab000b5842000864a7800b4842000144278006f
:100ac000e04f520001003a00c001070055248000a9
:100ad0000408200004826200e00f52000600320089
:100ae000652480000408200004826200e00f5200a8
:100af00001003200d2040700542480006202620028
:100b0000e00f52000c003200642480006202620098
:100b1000e00f520008003200120020008000eb00bd
:100b2000f0ff2700980a07000082eb007424880079
:100b3000240020005424880004418000e30f520068
:100b400002003e008ec0a9005500370064248000da
:100b500068026200e00f5200500032000042eb00d9
:100b6000044f780048003700542480006802620077
:100b7000e00f5200480032009424800004427800c4
:100b80000443780045842000864a7800448420008d
:100b9000144278000482fb004422de000442780004
:100ba0000443780055842000864a780084002000a1
:100bb0005424880044842000144278006842620073
:100bc000e04f520013003a00548420001442780091
:100bd0000483fb008482fb00948420000482420092
:100be0009442780061c262000404a200e142620003
:100bf0009484200004024300e1c262009443780020
:100c0000e6cfb30006c3630085427300054a78004f
:100c10001200370054842000144278000483fb0043
:100c20008482fb0074842000048242009442780095
:100c300061c262000404a200e142620074842000e8
:100c400004024300e1c2620094437800e6cfb3009f
:100c500006c3630085427300054a7800548420006f
:100c600014427800e04f520002003a00ad04070041
:100c7000040037000001eb00418420002007200021
:100c8000410a07001e4fe8001e427800e34f520061
:100c9000b5ff360001003700000000008ec0a9003b
:100ca0000080fa00000006000400fa0020479800c7
:100cb000314798003e4290000482fb0068026200c7
:100cc000e00f5200030032008040eb002e40900005
:100cd000c90107003e4290000482fb0064026200ea
:100ce000e00f52000300320011c0b3002e4090000c
:100cf000c1010700a54a20002e4290000482fb009b
:100d000004024200048f42001e027800be4290009e
:100d1000054a78000080fa00000006000800fa008a
:100d200020479800314798002207980063479800b1
:100d30003e429000e04f5200070032002e429000e9
:100d40000482fb0084024200c4822000048242002c
:100d5000140f7800060037002e4290000482fb003a
:100d6000840242008482200004824200140f780032
:100d70001e027800e00f520002003a000002eb0071
:100d800037003700ae0290001e027800150298006e
:100d90001e027800ee429000054a78001e0278009c
:100da0001442900006c4b300864262001e0278001e
:100db000154298001e027800144290008442780088
:100dc0000534a0001e027800154298001e0278002b
:100dd0009442900004c8b30084c272001e027800de
:100de000154298003e429000e04f52000e00320043
:100df000c58220002e4290000482fb0004024200c3
:100e000084824200c68220002e4290000482fb00b1
:100e10000402420004024300144278000424a200a9
:100e2000844a78000d003700858220002e42900011
:100e30000482fb0004024200848242008682200079
:100e40002e4290000482fb00040242000402430090
:100e5000144278000424a200844a78001e0278001c
:100e6000040078000080fa00000006000400fa0088
:100e700020479800314798002e429000e04f5200e2
:100e800019003a003441800085c0b300054a78005b
:100e900034418000158520001502980034418000ff
:100ea000c5c0b30015429800344180003541800030
:100eb0001543900005c8b3008542730015429800a1
:100ec0006441800045c0b300154298006441800031
:100ed000654180001543900005c8b300854273004a
:100ee000154298002e0037002e4290000482fb002d
:100ef00004024200840278003e4290000482fb001b
:100f0000048242004322dd00840278000480200035
:100f1000048f42001e027800144290008442780040
:100f20000524a0001e027800154298001e027800d9
:100f30009442900004c8b30084c272001e0278007c
:100f4000154298002e4290000482fb0004024200e9
:100f5000840278003e4290000482fb00048242003a
:100f60004322dd00e402420004802000048f42009e
:100f70001e02780014429000844278000524a000ec
:100f80001e027800154298001e02780094429000dc
:100f900004c8b30084c272001e0278001542980093
:100fa0000080fa00000006000200fa00004f7800fe
:100fb000a52480000402200004826200e00f520099
:100fc0005b0032009e4278000582fb0084024200f2
:100fd000c482200004824200140078001e4378007e
:100fe0000682fb0084024200c48220000482420088
:100ff000140278001403be00040420000500200041
:1010000086007800070378008403780005027800e2
:10101000878060000402630005002000c022dd001c
:10102000040020000403be00610ab800040373003a
:10103000858373000688be009e4378000782fb000c
:1010400084024200c482200004824200140078001e
:101050009e4278000582fb0084024200c482200088
:1010600004824200140278001403be00040420002d
:101070000500200004026b0085826b000488be001e
:10108000c58220001e4378000682fb000402420055
:1010900084824200c68220009e4378000782fb00c3
:1010a0000402420004024300144278000424a20017
:1010b000844a78009e4278000582fb008402420048
:1010c000c482200004824200940278001e4378000b
:1010d0000682fb0004034200c48220000402430095
:1010e00014027800144290000444b2009442980024
:1010f0009e4378000782fb0084024200c4822000e5
:1011000004824200940278001e4378000682fb00ad
:1011100004034200c4822000040243001402780049
:101120001443900004c4b30004426b00944298003e
:101130000080fa00000006000000fa000002eb0048
:10114000a42488000002eb00642488000002eb0065
:10115000044188000080fa00000006000000fa0048
:1011600004418000e00f520016003a000002eb003c
:10117000a42488000002eb006424880024002000de
:10118000342588000002eb00442588008644a9002d
:10119000f409200084248800f409200064248800d5
:1011a0009ec0a800010037009404a800a424800079
:1011b00061026200e00f5200fbff320014002000c9
:1011c000044188000080fa00000006000000fa00d8
:1011d000d4842000144278000404a200e04f52009e
:1011e0004200320014c0b30004437800d5842000cc
:1011f000864a7800e4842000144278000404a200a7
:10120000e04f52003900320014c0b30004437800ac
:10121000e5842000864a7800148320001442780078
:10122000e24f52000d003a00644180008042eb0022
:10123000054a78006441800085c4b30015429800d7
:1012400064418000654180001543900005c8b300eb
:101250008542730015429800240037001483200053
:1012600014427800e14f520020003a000042eb00a7
:101270000443780065842000864a78002441800079
:1012800085c0b300054a7800244180001585200000
:10129000150298002441800045c0b3001542980013
:1012a00024418000254180001543900005c8b3000b
:1012b000854273001542980014c0b30004437800bf
:1012c00065842000864a78003441800085c0b300e0
:1012d000054a7800344180001585200015029800e9
:1012e0003441800005c8b300154298000080fa0020
:1012f000000006000000fa000042eb000443780002
:10130000f5842000864a78000042eb000443780010
:1013100005852000864a7800148320001442780056
:10132000e24f520010003a003441800085c0b30003
:10133000054a780034418000958520001502980008
:101340003441800085c4b3001542980034418000c8
:10135000354180001543900005c8b30085427300f5
:10136000154298002200370074852000144278004e
:101370000482fb0085852000954278008582fb0071
:10138000c82add000502720084027800b4418000a2
:10139000848f5200090031007485200014427800c7
:1013a0000482fb0085852000954278008582fb0041
:1013b000c82add0005027200b4418800b6000700ab
:1013c00064418000958520001502980064418000ea
:1013d00085c4b300154298006441800065418000d7
:1013e0001543900005c8b30085427300154298006c
:1013f0000080fa00000006000400fa002047980070
:101400003147980004802000040f78002e4290009d
:101410000482fb0004024200840278003e429000f5
:101420000482fb00048242004322dd001e0f4200c2
:101430009e0278001502780004f0a100840a78006a
:101440003e429000e04f520007003a002e429000ca
:101450000482fb0084024200848220000482420055
:101460001e0a7800060037002e4290000482fb001e
:1014700084024200c4822000048242001e0a7800d6
:101480009e0278001502780004e0a100840a78002a
:101490001e027800e40242001502780004e0a00079
:1014a000840a78000080fa00000006000000fa00bc
:1014b00094a4a900a54180000408200004826200d1
:1014c000e00f520032003a00a583200095427800d8
:1014d00004c8b30004c26200e04f5200130032009f
:1014e00024c0b3000443780015832000864a7800a6
:1014f00004852000144278000404a200e04f52004a
:10150000010032007bff07000042eb00044378003b
:10151000e5842000864a78000042eb00044378000e
:10152000d5842000864a7800590037003441800075
:1015300085c0b300054a780034418000158520003d
:101540001502980034418000c5c0b30015429800d0
:1015500034418000354180001543900005c8b30038
:1015600085427300154298006441800045c0b30075
:101570001542980064418000654180001543900049
:1015800005c8b3008542730015429800400037003b
:10159000158520009542780004c8b30004c262009b
:1015a000e04f52001900320014c0b3000443780029
:1015b00015832000864a7800f484200014427800c5
:1015c0000404a200e04f52000100320049ff07006e
:1015d0000042eb0004437800e5842000864a78004e
:1015e0000042eb0004437800d5842000864a78004e
:1015f000c4842000144278000404a200e04f52008a
:1016000023003200f1fe07002100370024c0b300a0
:101610000443780015832000864a78003441800016
:1016200085c0b300054a780034418000158520004c
:10163000150298003441800045c0b300154298005f
:1016400034418000354180001543900005c8b30047
:1016500085427300154298000042eb000443780075
:10166000e5842000864a78000042eb0004437800bd
:10167000d5842000864a7800c48420001442780073
:101680000404a200e04f520001003200cffe070028
:101690000080fa00000006000200fa0084c0b300d7
:1016a000044f7800b4418000e70f520013003e0061
:1016b000b4418000044f7800048320001442780075
:1016c000e04f520005003a0014c0b3000443780014
:1016d00005832000864a7800080037000483200034
:1016e00014427800e14f520004003a0024c0b300d5
:1016f0000443780005832000864a7800b5418000c5
:101700001e4378000682fb0004825200b441880028
:10171000644180001e4a78009485200004428800bd
:10172000a441800061026200e00f520017003a00fd
:10173000090037000542800094418000144378007e
:10174000864a78008502e800054288000402e80025
:10175000944188001e4fe9001e427800e04f52007d
:10176000f4ff3a000c0037000542800094418000ed
:1017700014437800864a78008502e8000542880014
:101780000402e800944188001e4fe9001e427800e0
:10179000e04f5200f4ff3a000080fa00000006001b
:1017a0000200fa0024418000144f78001e427800a5
:1017b0008482fb00b4832000144278000482fb0082
:1017c000c6832000164378000683fb004833dd0003
:1017d00006027200848f520009003600b483200094
:1017e000144278000482fb00c583200095427800f3
:1017f0008582fb00c82add0005027200044f7800d4
:10180000b4832000144278000482fb00c5832000ca
:10181000954278008582fb00c82add00050272002f
:10182000840278001e4378000682fb000482520086
:10183000f50f200085026200b68320001643780071
:10184000604363008542730005437800b78320003e
:10185000864b78004822de00c58320009542780040
:10186000e0c2620004c2720084427800c783200094
:10187000854b78000042eb001447980023003700a6
:1018800084832000144278000482fb0095832000aa
:10189000954278008582fb00c82add0005027200af
:1018a0009e4290000583fb00958520008502430041
:1018b00095427800054a78000402e800f50f200000
:1018c000850262008683200016437800604363002f
:1018d000854273008543780086832000074b78009b
:1018e0004822de009583200095427800e0c2620025
:1018f00004c272000443780095832000864a780071
:101900001e4290000442e800144798001e429000d6
:101910009e4f5200daff3900b48320001442780051
:101920000482fb00c5832000954278008582fb007d
:10193000c82add0005027200e00f520020003200cc
:101940003441800085c0b300054a780034418000ee
:1019500095852000150298002441800094027800ab
:101960000400240004826200e00f52000a003a00e2
:101970003441800085c4b300154298003441800092
:10198000354180001543900005c8b30085427300bf
:1019900015429800330037003441800085c0b30001
:1019a0001542980034418000354180001543900075
:1019b00005c8b3008542730015429800290037001e
:1019c0003441800085c0b300054a7800344180006e
:1019d00015852000150298003441800045c0b300f1
:1019e0001542980034418000354180001543900035
:1019f00005c8b3008542730015429800d4832000c7
:101a0000144278000482fb00e583200095427800b0
:101a10008582fb00c82add0005027200e00f52003b
:101a200009003200d4832000144278000482fb00b5
:101a3000e5832000954278008582fb00c82add00fe
:101a400005027200040001003ae8a900c4842000e5
:101a5000144278000404a200e04f5200010032005a
:101a6000dafd07000080fa00000006000200fa001c
:101a700034e8a800220020008000eb00c04a2000cb
:101a8000b0fa0700020220008000eb000080200076
:101a9000acfa07009424a8000042eb00044f780041
:101aa0000d0037001e4278008482fb007484200001
:101ab000048242008042eb00054a78001e43780011
:101ac0008682fb0094842000048242008042eb0066
:101ad000054a78001e4fe8001e427800e14f520090
:101ae000f0ff3600120020008000eb003082200062
:101af00094fa07009424a90084802000644188009f
:101b00000480200024418800244180003441880062
:101b10003485200014427800044378002582200098
:101b2000864a78002482200014427800e04f520058
:101b300003003a0004012000044188000600370039
:101b40001200200021822000100020008e060700d5
:101b500004022000044188000080fa000000060012
:101b60000000fa00158520009542780004c8b300f3
:101b700084cf52004d003a0004ccb30004437800f7
:101b800045832000864a780044852000144278006e
:101b90000482fb00e20f520009003200e30f520002
:101ba00026003200e10f52003b003a00042b2800cf
:101bb0009441880024012000b44188003b00370094
:101bc0003485200014427800e04f520016003a009d
:101bd00034852000144278000482fb000402420095
:101be0008402780004342800048242001402780041
:101bf00094418800944180000482e80014427800f7
:101c00000443780065832000864a78009441800070
:101c10006302420014427800044378007583200078
:101c2000864a7800210037000042eb000443780028
:101c300045832000864a78001c0037003485200048
:101c400014427800e24f52000e003e00348520001e
:101c5000144278000482fb000402420084027800ef
:101c60002434280004824200140278009441880041
:101c700094418000144278000482fb00b441880043
:101c80000a0037000042eb0004437800458320003f
:101c9000864a7800050037000042eb0004437800d4
:101ca00045832000864a7800000000000080fa008a
:101cb000000006000200fa000042eb000443780036
:101cc00095852000864a78000042eb0004437800a6
:101cd000a5852000864a78001485200014427800eb
:101ce0007f4262000482fb00e10f520016003200c6
:101cf000e20f520016003200e00f520042003a009c
:101d000034e8a80094852000144278000404a00060
:101d10000443780095852000864a780024842000ba
:101d200014427800e04f52003200320094852000c7
:101d3000144278000414a000044378009585200024
:101d4000864a78003000370034e8a8002e003700bb
:101d500034e8a800558520009542780004c8b300f7
:101d600004c26200e04f520009003a00548520008e
:101d7000144278006f4262000482fb008402420039
:101d80008482200004824200140f7800080037008b
:101d900054852000144278006f4262000482fb00e8
:101da00084024200c482200004824200140f7800a2
:101db0001e02780094027800040028000482620069
:101dc000e00f52000d0032001e02780094027800ed
:101dd0000440200004826200e00f5200090032003b
:101de00014c0b3000443780095852000864a78002b
:101df000050037000000000003003700000000006d
:101e00000100370000000000a54180000408200008
:101e100004826200e00f5200070032009485200027
:101e2000944188003408a80024c0b300044378001b
:101e300065832000864a78000080fa0000000600d2
:101e40000000fa005425800062026200e00f520098
:101e500014003200244180009442900004c8b30072
:101e600084cf52000e003a006441800094429000fa
:101e700044c8b30084cf520009003a0024418000d6
:101e8000c5c0b30015429800244180002541800060
:101e90001543900005c8b3008542730015429800b1
:101ea000aa24a90004082000542488000080fa0015
:101eb000000006000000fa008284a800040120004f
:101ec0005424880014c0b3000443780035842000f3
:101ed000864a78000001eb008000eb0050072000ec
:101ee000a90507000080fa00000006000000fa00c3
:101ef0000042eb000443780035842000864a7800d5
:101f00000001eb008000eb00400720009e05070069
:101f10008284a90004012000042488000080fa00c3
:101f2000000006000200fa00d4c2b30004437800a7
:101f3000b5842000864a780044842000144278004a
:101f40008482fb00b4ff2f0004826200e00f520085
:101f500032003a0044842000144278000482fb00de
:101f60004222de00044278000482fb00c222dd002f
:101f70000480200004824200244188002441800023
:101f800034418800648220006582200095427800f8
:101f90000524a200054a78002441800094027800bc
:101fa00004c023008482620004402300848f520016
:101fb00018003a000042eb00044f78000d00370093
:101fc0001e4278008482fb001485200004824200b7
:101fd000254180009502900095427800054a7800de
:101fe00024418000940290008502e80015029800c8
:101ff0001e4fe8001e427800e74f5200f0ff360007
:102000002441800015852000150298000d0007006e
:102010000a0037005b0007000800370044842000f6
:10202000144278008482fb00b4ff2f000482620017
:10203000e80f520001003a00780007000080fa0023
:10204000000006000000fa000042eb0004437800a4
:1020500005832000864a78000042eb0004437800a4
:10206000c5842000864a78000042eb0004437800d3
:10207000f5842000864a78000042eb000443780093
:1020800005852000864a78000042eb000443780072
:1020900065842000864a78000042eb000443780003
:1020a00015832000864a78006441800065418000e5
:1020b000954290000574a10015429800c48220004a
:1020c000c5822000954278000524a200054a7800c8
:1020d0006441800065418000954290000574a10034
:1020e00015429800c4822000c582200095427800e5
:1020f0000524a200054a7800344180003541800063
:10210000954290000574a100154298000042eb0032
:102110000443780045832000864a78000002eb00e3
:10212000b44188000042eb0004437800a5832000fe
:10213000864a7800b483200014427800604262002e
:1021400004437800b5832000864a7800c4832000c9
:10215000144278006042620004437800c583200086
:10216000864a7800960007000001eb008000eb0033
:102170003000200004050700ccfc07000080fa00b6
:10218000000006000000fa001483200014427800ca
:10219000e24f520002003a0081fd07001d003700a7
:1021a0000042eb000443780015832000864a780043
:1021b00064842000144278000404a200e04f52001e
:1021c000100032003441800085c0b300054a780019
:1021d00034418000158520001502980034418000ac
:1021e000c5c0b300154298003441800035418000dd
:1021f0001543900005c8b30085427300154298004e
:10220000040037000042eb0004437800658420009e
:10221000864a78000080fa00000006000200fa00fa
:1022200064418000140278004e22de0061426200a8
:10223000044f7800c4822000c582200095427800b7
:102240000524a200054a780004418000e80f5200ee
:102250000e003a0034852000144278008482fb008e
:10226000f407200004826200b4248800b4248000b3
:10227000e00f5200030032000401200004418800f6
:10228000020037004400200004418800148320002d
:1022900014427800e14f520029003a006441800066
:1022a0009585200015029800fbfc070004832000a0
:1022b00014427800e24f52000a003a006441800064
:1022c00045c0b3001542980064418000654180001c
:1022d0001543900005c8b30085427300154298006d
:1022e000350037001e427800e04f52000a003a00e5
:1022f0006441800085c4b3001542980064418000a9
:10230000654180001543900005c8b3008542730005
:1023100015429800280037006441800085c0b30052
:10232000154298006441800065418000154390008b
:1023300005c8b30085427300154298001e0037009f
:10234000a58320009542780004c8b30004c262004f
:10235000e04f520014003200d48320001442780071
:102360000482fb00e5832000954278008582fb0013
:10237000c82add0005027200e00f52000900320099
:10238000d4832000144278000482fb00e5832000ff
:10239000954278008582fb00c82add0005027200a4
:1023a000040001003ae8a9000042eb000443780071
:1023b00015832000864a78000080fa00000006009d
:1023c0000000fa0014852000144278000446b20090
:1023d000e04f520047003a00248520001442780064
:1023e0000482fb00cfa2de00b60020000700200020
:1023f000860f5200878f5a0040003e0004600100a3
:102400001c0037001d0037003e0037001b0037005e
:102410003c00370006003700090037003000370065
:102420000b00370008003700160037002200370085
:1024300034e8a800840020000441880032003700fe
:10244000c7fd07003000370088fd07002e00370069
:1024500024822000944188003408a80014c0b300ee
:102460000443780065832000864a780034e8a80099
:10247000250037000ffe0700230037002400070067
:102480002100370054852000144278008482fb002c
:102490003482200004824200944188003408a8005d
:1024a00014c0b3000443780065832000864a780096
:1024b00034e8a8001400370034e8a8005485200050
:1024c000144278000483fb00358520009542780093
:1024d0003482200004024300054a78000a003700d5
:1024e0000001eb008000eb00200020002604070024
:1024f0000500370000000000030037000000000066
:1025000001003700000000000080fa000000060013
:102510000600fa003485200014427800e14f520092
:1025200013003a0014852000144278007f426200b4
:10253000e04f52000e003a0034e8a8002485200045
:1025400014427800e34f520005003a0014c0b30073
:102550000443780025842000864a78000400370070
:102560000042eb000443780025842000864a78006e
:102570003485200014427800e04f5200fd003a00fc
:1025800014852000144278007f426200e24f52001e
:10259000f8003a0054852000144278006f4262002f
:1025a000e04f5200f30032005485200014427800be
:1025b0006f4262000482fb00e10f5200ed003c001c
:1025c0000541800004022000848f5200e9003a0097
:1025d00034e8a800558520009542780004c8b3006f
:1025e00004c26200e04f520012003a0054852000fd
:1025f000144278006f4262000482fb0084024200b1
:10260000848220000482420014027800140798009b
:1026100054852000144278006f4262008482fb00df
:1026200094842000048242001442780044479800b9
:102630001100370054852000144278006f42620078
:102640000482fb0084024200c48220000482420013
:102650001402780014079800548520001442780072
:102660006f4262008482fb00748420000482420076
:1026700014427800444798004e4290006142620044
:10268000e04f520007003a000e82e8008e82e80018
:1026900015437800b5cfb30085426300054a780042
:1026a000050037000e82e8008e82e800954278002f
:1026b0000524a000054a7800558520009542780041
:1026c00004c8b30004c26200e04f52000a003a009e
:1026d00054852000144278006f4262000482fb009f
:1026e0009e02900004034200848220000402430002
:1026f000050a78000900370054852000144278004c
:102700006f4262000482fb009e02900004034200bc
:10271000c482200004024300050a780024852000ba
:1027200014427800e34f52002b003a001e02900042
:10273000940278000400280004826200e00f520036
:1027400019003200558520009542780004c8b30076
:1027500004c26200e04f52000a003a005485200093
:10276000144278006f4262008482fb00948420004f
:1027700084824200154278000410a000844a780048
:102780000900370054852000144278006f4262002f
:102790008482fb0074842000848242001542780009
:1027a0000410a000844a78001e0290009e0290004f
:1027b000954290000524a000154298001e0290004a
:1027c0009e0290001543900005c8b3008542730037
:1027d00015429800670037000e82e8008e82e800fc
:1027e000954278000524a200054a78001e02900058
:1027f000940278000400280004826200e00f520076
:10280000110032001e0290009e029000954290003e
:102810000574a100154298001e0290009e029000cf
:102820001543900005c4b30085427300154298001b
:102830001e0290002200200084007800500020003a
:1028400051030700060037001e0290009e02900010
:102850001543900005c4b3008542730015429800eb
:102860000e82e8008e82e800954278000524a200de
:10287000054a78004e42900062426200e04f5200ea
:1028800006003a001e02900094027800040028001e
:1028900004826200e00f52002400320055852000bf
:1028a0009542780004c8b30004c26200e04f5200b1
:1028b0000a003a0054852000144278006f426200fa
:1028c0008482fb00948420008482420015427800b8
:1028d0000410a100844a78000900370054852000c4
:1028e000144278006f4262008482fb0074842000ee
:1028f00084824200154278000410a100844a7800c6
:102900001e0290009e02900095429000b543b200d6
:10291000154298001e0290002200200084007800da
:102920005000200018030700050037001e02900029
:102930009e02900095429000b543b2001542980067
:10294000a54a200054852000144278006f4262009e
:102950000482fb0004024200048f42001e02780041
:1029600094427800d4cfb30084c262001e02780083
:10297000054a78000080fa00000006000000fa0016
:102980000002eb001443880044c0b3000443780005
:1029900065862000864a78000042eb0004437800f8
:1029a00075862000864a7800441f2000d4438800a2
:1029b0000200370074448000f4438800f54380002f
:1029c00074448000848f5200faff3a00d1c1b300f2
:1029d00010c0b300b4f8070023c0b3000287200082
:1029e0008040eb0010c0b300ccf807000002780074
:1029f000244388000080fa00000006000400fa006a
:102a00000200370074448000e4438800e5438000fe
:102a100074448000848f5200faff3a00e54380003e
:102a2000f4438000048f52001e027800e00f520031
:102a300005003d00f4438000f5ff2700848252002a
:102a4000e4438000048f4200843821009e02780015
:102a5000848f520004003400e543800084c72e00b8
:102a600004824200f443880014438000e00f5200c7
:102a7000060032001443800094027800040028000d
:102a800004826200e00f520060003a0082002000e1
:102a90008000eb0080862000aaf6070010002000ce
:102aa0006103070000427800e04f52001c00320032
:102ab00074862000144278000404a200e04f520003
:102ac0001b00320014c0b300044378007586200058
:102ad000864a780064862000144278000443780017
:102ae000a5862000864a78000442e8000443780066
:102af00065862000864a7800658620009542780029
:102b000084c2b30084cf520009003a0044c0b3002d
:102b10000443780065862000864a78000400370068
:102b20000042eb000443780075862000864a780056
:102b30000042eb00344798000042eb002447980025
:102b4000120037002e4290008482fb002487200070
:102b500004824200944278002e4290000483fb00dd
:102b600084862000040243001442780084cf52007f
:102b70000300320014c0b300344798000600370049
:102b80002e4290000442e800244798002e42900014
:102b9000e74f5200ebff3600d4438000e00f5200b5
:102ba00006003200d44380009e027800848f5200d9
:102bb0000200350014c0b300344798003e42900034
:102bc000e04f520011003200444380005543800022
:102bd00094438800a54388006443800075438000c7
:102be000b4438800c543880083c0b30082862000b8
:102bf00011c0b30010c0b30048f80700000278000d
:102c000014438800e4438000f44388002443800098
:102c1000e00f520006003200244380009402780046
:102c20000400280004826200e00f520008003a000d
:102c30000900070023c0b300028720008040eb009a
:102c400010c0b30035f80700000278002443880064
:102c50000080fa00000006000000fa00048720004f
:102c60001442780062426200e04f520003003200da
:102c700020002000b30107000200370020002000e0
:102c8000c10107000080fa00000006000000fa0001
:102c900094852000144278000443780005872000c2
:102ca000864a7800ecff07000080fa00000006006a
:102cb0000000fa0094852000f50f200085026200d4
:102cc00086832000164378006043630085427300ca
:102cd0008543780086832000074b78004822de0079
:102ce0009583200095427800e0c2620004c2720021
:102cf0000443780095832000864a7800b48320003e
:102d000014427800604262000434a00084427800db
:102d1000b7832000854b7800c483200014427800dc
:102d20006042620084437800c6832000074b78002d
:102d300064642100f50f200085026200d683200024
:102d40001643780060436300854273008543780032
:102d5000d6832000074b78004822de00e583200060
:102d600095427800e0c2620004c272000443780019
:102d7000e5832000864a78003ae8a8000080fa003f
:102d8000000006000200fa00004f7800114798008a
:102d90001e427800e04f520003003a001e429000ad
:102da0000482fb00d44388000080fa000000060083
:102db0000400fa00100798000042eb00044f78006e
:102dc000130037009e4278000582fb006a22b9009a
:102dd0008402780004882000048242009402780073
:102de0001e029000848f520008003a009e42780034
:102df0000582fb006a22b900840278000488200062
:102e0000048242008002eb00050a78001e4fe800b1
:102e10001e427800e04f5200eaff32000080fa00c4
:102e2000000006000800fa0010079800220798002a
:102e3000330798000042eb00044f7800250037006c
:102e40009e4278000582fb006a22b9008402780065
:102e5000048820000482420014027800e00f52002f
:102e60001b003a001e4378000682fb006a22b9006c
:102e70008402780004882000048242009e039000af
:102e8000070a78009e4278000582fb006a22b9009a
:102e90008402780024882000048242002e039000df
:102ea000be039000068abe009e4378000782fb00a6
:102eb0006a22b900840278006488200004834200fa
:102ec0006022b800048bbe0014c0b30005003700b8
:102ed0001e4fe8001e427800e04f5200d8ff32003b
:102ee0000042eb00044078000080fa000000060079
:102ef0000200fa00000f78001e027800e10f520075
:102f000018003200e10f520003003900e20f5200b6
:102f10002700320029003700a20020008000eb00cb
:102f20000088200087f50700440580000400a00009
:102f30000410a1000420a100440588008500a90018
:102f40000002eb0054088800047d2000740888000b
:102f500004012a00940888009500a80014c0b3005a
:102f600017003700a20020008000eb00008820003e
:102f700074f507002405800004c0a10004d0a1005e
:102f800004e0a000240588008460a9000002eb0092
:102f90000408880004002800140888002400280081
:102fa000240888009460a80014c0b300040037000f
:102fb0009500a90014c0b300010037000042eb00e7
:102fc000044078000080fa00000006003600f80097
:102fd000809fbe00829fbe00849fbe00869fbe0071
:102fe0003400f80000002000a00188000200fa0070
:102ff0000042eb00044f78003c0037009e4278000e
:103000000582fb006a22b90084027800048820004f
:103010000482420014027800e00f520032003200b5
:103020001e4278000483fb006a32b9000402780073
:10303000e602420004882000048242001402be001e
:1030400061024200e0824a006a33b90086037800d8
:103050006688200006834300048bbe009e427800f1
:103060000582fb006a22b90004027800e6024200f1
:1030700004882000048242001403be009e427800af
:103080000582fb006a22b900040278008482e8000d
:1030900004882000048242001402be00840f530002
:1030a000858f5b0010003a009e4278000582fb008d
:1030b0006a22b90084027800048820000482420059
:1030c00014027800040001009e4278000582fb0093
:1030d0006a22b900840278006488200004834200d8
:1030e0006022b800048bbe001e4fe8001e4278002c
:1030f000e04f5200c1ff32008500a9000080fa00b5
:103100003400f9004f03be004f02be004f01be0065
:103110004f00be003600f900004006000000fa0033
:1031200014852000144278007f426200e14f520073
:103130007d003a005485200014427800e04f520090
:103140007b003a002485200014427800e64f5200ac
:1031500025003a0044852000144278000482fb00d8
:1031600025022000850f5200130032003502200096
:10317000850f52001900320015022000850f520001
:1031800019003a002482200014427800e14f5200d6
:1031900014003a00442d2800944188009400200037
:1031a000b441880004ccb300044378004583200078
:1031b000864a78000c003700843428009441880047
:1031c000f4032000b441880004ccb3000443780029
:1031d00045832000864a7800030037000000000085
:1031e0000100370000000000148520001442780020
:1031f00006c6b3008642620004c2b30084cf520008
:103200004d003a0024852000144278000482fb001f
:103210006123b9000082eb008082eb0006024200cd
:1032200087824a00a600200007002000860f520077
:10323000878f5a0041003e00046001003f003700c4
:103240000b003700240037003c0037003b003700fc
:103250003a003700390037003800370002003700e5
:103260000c0037002500370091fe070033003700bf
:10327000a48820009441880014002000b4418800f4
:1032800014ccb3000443780045832000864a7800bc
:103290002a00370004c8b3000443780045832000a7
:1032a000864a780014852000344290000443780058
:1032b000a5882000864a7800a588200095427800dd
:1032c0001485200024429000854078000440780056
:1032d000acfe070019003700b48820009441880034
:1032e00014002000b441880014c8b30004437800df
:1032f00045832000864a78001000370004c8b300d8
:103300000443780045832000864a78001485200015
:103310002442900004437800b5882000864a780053
:103320000000000005003700000000000300370027
:103330000000000001003700000000000080fa00db
:10334000000006000200fa00000f78001e0278005c
:10335000e10f520005003200e10f52000700390072
:10336000e20f52000300320005003700cd02a80032
:1033700003003700cd22a800010037000000000044
:103380000080fa00000006000200fa00000f78003a
:103390001e027800e10f520005003200e10f5200da
:1033a00007003900e20f5200030032000500370029
:1033b000cd02a90003003700cd22a900010037008b
:1033c000000000000080fa00000006000200fa0081
:1033d000000f78001e027800e10f52000500320055
:1033e000e10f52001f003900e20f52000f003200bf
:1033f0001d003700641680004822de006142620032
:103400000404a200614262000482fb0061026200c7
:103410004822dd0066168000f5ef2f00850263006c
:1034200005027200641688000f00370064168000e1
:103430004922de00614262000404a200614262008f
:103440000482fb00610262004922dd0066168000f2
:10345000f5df2f0085026300050272006416880004
:1034600001003700000000000080fa0000000600a4
:103470000200fa00000f78001e027800e10f5200ef
:1034800005003200e10f520015003900e20f520032
:103490000a00320014003700651680000410200076
:1034a0000482620004f0a7000402ea000402ea00b9
:1034b0004f22de00044278000c00370065168000c1
:1034c000042020000482620004f0a7000402ea0045
:1034d0000402ea004f22de000442780003003700b5
:1034e0000042eb00010037000042eb00044078008e
:1034f0000080fa00000006000200fa00000f7800c9
:103500001e027800e10f520005003200e10f520068
:1035100007003900e20f52000300320005003700b7
:10352000c902a90003003700c922a9000100370021
:10353000000000000080fa00000006000000fa0011
:103540000000eb008600070071f4070003f7070096
:1035500004418000ff0f520001003e0009003700c7
:103560004424800062026200e00f52000300320037
:1035700010002000ac000700020037001ffd07000c
:10358000f3ff3700f2ff37000600fa00000f780063
:1035900011079800220798001e02780025072000d6
:1035a000850f52002b00320025072000850f5200a6
:1035b0000a003c00e20f520028003200e20f5200e5
:1035c00003003c00e10f52001e00320024003700cf
:1035d000e30f52001d003200210037004507200094
:1035e000850f52001500320045072000850f52005c
:1035f0000400350055072000850f52000d003200f1
:10360000170037001a00070075448000f4ff2700f8
:10361000848f520004003200744480000402e800e9
:10362000744488000e0037000002eb0074448800e8
:103630000b0037000e000700090037000c000700e0
:1036400007003700cdfc070005003700b3fe070078
:1036500003003700000000000100370000000000f8
:1036600014c0b300044078000080fa000000060097
:103670000000fa004424800062026200e00f520061
:1036800003003200100020003fff07003200370027
:103690000541800004022000848f520014003a008b
:1036a00064448000e10f520003003a001000200043
:1036b00024ff07002500370065448000b404200083
:1036c000848f520003003a00100020002eff0700f4
:1036d0001e0037006544800064092000848f52007a
:1036e000170036000002eb00644488001700370022
:1036f00064448000e10f520003003a0010002000f3
:1037000010ff0700110037006544800024032000eb
:10371000848f520003003a00100020001aff0700b7
:103720000a00370065448000643b2000848f52000b
:10373000050036000002eb006444880003003700f7
:103740000000000001003700000000006444800019
:103750000402e800644488000080fa0000000600cb
:103760000400fa00100798001e029000e10f5200ba
:1037700016003200e10f52001600310084252000af
:10378000040f780044a7a800000000001e02780083
:1037900004f0a7000402ea000402ea004f22de005f
:1037a000044278001e0fe900e04f5200f7ff3a0094
:1037b0001000200050ff0700200020004eff0700ef
:1037c0001000200038000700030037000000000050
:1037d00001003700000000000080fa000000060031
:1037e0003600f800809fbe00829fbe00849fbe000e
:1037f000869fbe003400f80000002000a001880071
:103800000000fa005bf407000080fa003400f900c1
:103810004f03be004f02be004f01be004f00be006e
:103820003600f900004006000200fa00000f7800a0
:103830001e027800e10f520005003200e10f520035
:1038400013003900e20f5200090032001200370065
:10385000141680006102620004f0a7000402ea006e
:103860000402e9004f22de00044278000b0037001a
:10387000141680006202620004f0a7000402ea004d
:103880000402e9004f22de00044278000300370002
:103890000042eb00010037000042eb0004407800da
:1038a0000080fa00000006000200fa00000f780015
:1038b0001e027800e10f520005003200e10f5200b5
:1038c00007003900e20f5200030032000500370004
:1038d000c002a80003003700c022a8000100370082
:0c38e000000000000080fa00000006005c
:020000040000fa
:1038ec00200800004200000000000000000800005a
:1038fc0020000000000000008a0800000200000008
:10390c0000000000800800000a0000000000000019
:10391c00620800001e000000000000008c0800007f
:10392c0002000000000000008e08000002000000f1
:08393c00000000000000000083
:020000040000fa
:020000040001f9
:0457f00013ff0000a3
:020000040000fa
:020000040001f9
:0457f400c0fc0000f5
:020000040000fa
:020000040001f9
:0457f8008e1b000004
:020000040000fa
:020000040001f9
:0457fc00603f00000a
:00000001FF
